:020000040000FA
:020000001028C6
:040002000034003492
:020008006E2860
:10002000422056205F2063206C21291C2F288B1131
:100030003120291C2A28D2202A1C272828083406E7
:10004000031914282808B4004E212A101428FF3060
:10005000B40014282A10FF30B4008B1514288B1517
:1000600014282910FF308800081000000000861FA7
:100070002914FF308800881300000000861F29140F
:10008000880108008316031300308500F0308600D5
:100090008030870000308800811306309F00831273
:1000A00085017F3087008516880108008316193086
:1000B00099002430980083128030980008000B10BB
:1000C0008B158B1708006130A300A901AA01A401B8
:1000D000A601A701A801FF30B4000800A000030E8C
:1000E000A1000A08A2008A010B1C912869230608B6
:1000F000F039F03A03198E2898202A1C8E282808F7
:10010000183A03198C2828081F3A03198C28280844
:100110002621A30065218E2829148B112A1088011D
:100120000B1022088A00210E8300A00E200E090069
:100130002A10A601A701A801FF308800AE01FF30F8
:1001400088002E081921880000000000000000002F
:100150000608F039061EB828861EBA28061FBD28D4
:10016000861FC028AE0A2E08083A031D9F28D028F3
:10017000A601C3280130A600C3280230A600C32868
:100180000330A600C3282E08A7002608A8000310E5
:10019000A80D0310A80D0310A80D2708A8072A14FE
:1001A000880108002A10A601A701A801FF308800D5
:1001B000AE01FF3088002E081921880000000000E1
:1001C00000000000061EFF28861E0129061F0429C4
:1001D000861FF028AE0A2E08083A031DD9281729D1
:1001E0002E08003A0319F9282E08073A0319F928AE
:1001F0000729AE0A2E08083A031DD9281729A60197
:100200000A290130A6000A290230A6000A29033073
:10021000A6000A292E08A7002608A8000310A80D8A
:100220000310A80D0310A80D2708A8072A14880199
:100230000800AF0001308A002F088207FE34FD3429
:10024000FB34F734EF34DF34BF347F34AF00013098
:100250008A002F082E3E03188A0A820071347734F0
:100260006534723474347934753469346134733478
:1002700064346634673468346A346B347A3478347E
:100280006334763462346E346D346C3400346F34DD
:1002900070342F342A342B342D3400342808183A83
:1002A0000319080028081F3A031908002808262106
:1002B000A30023087A3C031C632961302302031C3A
:1002C00063292030A302652108008316981C662943
:1002D00083122308990008002308293C0318752974
:1002E00023087A3C031C752978296130AF007A29EC
:1002F0002308AF002A302F02B000B1010310B00D67
:10030000B10D0310B00DB10D2A302F02B007031844
:10031000B10AA40105108510051185110512BA2135
:10032000A50025093F398700251F8516251B851245
:100330002408A6215F2305108510051185110512DB
:10034000A40A2408053A031D8A290800AF000130D9
:100350008A002F088207B029B229B429B629B82902
:100360000514080085140800051508008515080007
:100370000516080024083007AF0031080318013EB5
:10038000A2000130A20722088A002F08CA3E0318E3
:100390008A0A8200143408343E3408341434083491
:1003A00008343E34083408340034503430340034D7
:1003B0000034083408340834083408340034603415
:1003C00060340034003420341034083404340234EF
:1003D0003E345134493445343E34003442347F3461
:1003E0004034003442346134513449344634213489
:1003F000413445344B3431341834143412347F349E
:100400001034273445344534453439343C344A3487
:1004100049344934303401347134093405340334F7
:10042000363449344934493436340634493449344D
:1004300029341E3400343634363400340034003469
:100440005634363400340034083414342234413401
:100450000034143414341434143414340034413457
:10046000223414340834023401345134093406344B
:1004700032344934793441343E347E3411341134C9
:1004800011347E347F3449344934493436343E346F
:1004900041344134413422347F34413441342234B4
:1004A0001C347F3449344934493441347F3409346D
:1004B0000934093401343E344134493449347A34FE
:1004C0007F340834083408347F34003441347F34B6
:1004D000413400342034403441343F3401347F34DB
:1004E00008341434223441347F34403440344034AE
:1004F00040347F3402340C3402347F347F3404348B
:10050000083410347F343E344134413441343E3475
:100510007F3409340934093406343E3441345134CB
:1005200021345E347F340934193429344634463456
:100530004934493449343134013401347F3401348D
:1005400001343F344034403440343F341F3420348D
:10055000403420341F343F344034383440343F3446
:100560006334143408341434633407340834703476
:100570000834073461345134493445344334003449
:100580007F344134413400340234043408341034AC
:1005900020340034413441347F3400340434023494
:1005A0000134023404344034403440344034403464
:1005B00000340134023404340034203454345434CC
:1005C000543478347F344834443444343834383400
:1005D0004434443444342034383444344434483487
:1005E0007F343834543454345434183408347E341A
:1005F0000934013402340C345234523452343E340F
:100600007F340834043404347834003444347D3482
:10061000403400342034403444343D3400347F349A
:100620001034283444340034003441347F344034AE
:1006300000347C3404341834043478347C34083482
:10064000043404347834383444344434443438344E
:100650007C3414341434143408340834143414340A
:1006600018347C347C34083404340434083448347A
:10067000543454345434203404343F3444344034F7
:1006800020343C344034403420347C341C34203416
:10069000403420341C343C344034303440343C3416
:1006A000443428341034283444340C345034503416
:1006B00050343C344434643454344C344434043082
:1006C000AB00A630AC000000AC0B632BAB0B612B76
:1006D00008002830B200A630B3000000B30B6D2B29
:0606E000B20B6B2B0800B9
:02400E00713F00
:00000001FF
